:0400000007EF00F016
:1000080056824EED0FF0A5EF1AF000018A51800BD1
:10001800936F8A518A25956F89AF15EF00F017EF16
:1000280000F018EF00F095819551D8B41EEF00F05C
:1000380020EF00F034EF00F09529D8A426EF00F067
:1000480028EF00F030EF00F0000E876F000E886F89
:10005800000E896F000E8A6F898F8A6B3CEF00F063
:10006800000E876F000E886F000E896F000E8A6F72
:100078008E51800B946F93519419D8B446EF00F0C9
:1000880048EF00F049EF00F0938D8E518E25946F64
:100098008DAF51EF00F053EF00F054EF00F0948172
:1000A8009451D8B45AEF00F05CEF00F070EF00F014
:1000B8009429D8A462EF00F064EF00F06CEF00F030
:1000C800000E8B6F000E8C6F000E8D6F000E8E6F02
:1000D8008D8F8E6B78EF00F0000E8B6F000E8C6F9B
:1000E800000E8D6F000E8E6F9551945DD8B07FEF26
:1000F80000F081EF00F0A8EF00F093AD86EF00F07C
:1001080088EF00F08AEF00F0800E931B95C096F000
:1001180094C095F096C094F087C096F08BC087F095
:1001280096C08BF088C096F08CC088F096C08CF092
:1001380089C096F08DC089F096C08DF08AC096F07F
:100148008EC08AF096C08EF0966B955194C08FF051
:10015800906B8F5F000E905B90BFBCEF00F09051EA
:1001680009E11A0E8F5DD8A0BCEF00F0BEEF00F0D9
:10017800F5EF00F08751881189118A11D8A4C7EFCB
:1001880000F0CAEF00F0010ECBEF00F0000E966F02
:10019800000E876F000E886F000E896F000E8A6F41
:1001A80094C095F0FEEF00F096A1DDEF00F0DFEFD0
:1001B80000F0E5EF00F0D89096310109966FE7EF6F
:1001C80000F0D890963387A1ECEF00F0EEEF00F046
:1001D800EFEF00F0968F8A358A3389338833873377
:1001E800952B9451955DD8A0FCEF00F0FEEF00F040
:1001F800D8EF00F093BD03EF01F005EF01F045EFF4
:1002080001F09551D8A40BEF01F00DEF01F017EFB5
:1002180001F0000E876F000E886F000E896F000EC8
:100228008A6F64EF02F08B5187278C5188238D5198
:1002380089238E518A238AA124EF01F026EF01F049
:10024800D2EF01F096A12BEF01F02DEF01F033EF83
:1002580001F0D89096310109966F35EF01F0D890EA
:10026800963387A13AEF01F03CEF01F03DEF01F042
:10027800968F8A358A33893388338733952BD2EF23
:1002880001F08B51875D8C5188598D5189598A515C
:10029800800A8F6F8E51800A8F59D8B056EF01F0BF
:1002A80058EF01F083EF01F087518B5D8F6F885114
:1002B8008C59906F89518D59916F8A518E59926FCF
:1002C800FF0E8F25876FFF0E9021886FFF0E9121FB
:1002D800896FFF0E92218A6F800E931B966D96513F
:1002E800D8A479EF01F07BEF01F08BEF01F0010E5C
:1002F8008727000E882389238A238BEF01F08B51EF
:10030800875F8C51885B8D51895B8E518A5B8751E1
:10031800881189118A11D8A494EF01F096EF01F0A1
:10032800CBEF01F09651D8A49CEF01F09EEF01F0BD
:10033800CBEF01F0000E876F000E886F000E896FFB
:10034800000E8A6F64EF02F0D890873788378937B4
:100358008A3796AFB2EF01F0B4EF01F0B5EF01F0D4
:10036800878196A1BAEF01F0BCEF01F0C0EF01F070
:10037800D8809637C2EF01F0D89096379551D8B407
:10038800C8EF01F0CAEF01F0CBEF01F0950789AF94
:10039800D0EF01F0D2EF01F0A8EF01F0946B96AF27
:1003A800D8EF01F0DAEF01F0F2EF01F096C08FF02C
:1003B8007F0E8F17D8B4E3EF01F0E5EF01F0E9EF16
:1003C80001F0010E946FF2EF01F087A1EEEF01F05A
:1003D800F0EF01F0F2EF01F0E5EF01F09451D8B43D
:1003E800F8EF01F0FAEF01F025EF02F0010E872790
:1003F800000E882389238A238AA105EF02F007EFDC
:1004080002F025EF02F087C08FF088C090F089C015
:1004180091F08AC092F092359233913390338F33B2
:100428008FC087F090C088F091C089F092C08AF0A0
:100438009529D8B422EF02F024EF02F025EF02F05C
:10044800952B9529D8B42BEF02F02DEF02F035EF5C
:1004580002F09551D8A433EF02F035EF02F046EFE1
:1004680002F0000E876F000E886F000E896F000E75
:100478008A6F9551D8A443EF02F045EF02F046EF9A
:1004880002F0936B95A14BEF02F04DEF02F050EFA5
:1004980002F0898F51EF02F0899FD89095318A6FC9
:1004A80093AF59EF02F05BEF02F05CEF02F08A8F36
:1004B80087C087F088C088F089C089F08AC08AF030
:1004C800120000017151800B7A6F71517125806F94
:1004D80070AF71EF02F073EF02F074EF02F08081F9
:1004E8008051D8B47AEF02F07CEF02F08FEF02F07F
:1004F8008029D8A482EF02F084EF02F08CEF02F09A
:10050800000E6E6F000E6F6F000E706F000E716F31
:10051800708F97EF02F0000E6E6F000E6F6F000E77
:10052800706F000E716F7551800B7A1B75517525B0
:100538007F6F74AFA2EF02F0A4EF02F0A5EF02F014
:100548007F817F51D8B4ABEF02F0ADEF02F0C0EF7E
:1005580002F07F29D8A4B3EF02F0B5EF02F0BDEFA7
:1005680002F0000E726F000E736F000E746F000EB3
:10057800756F748FC8EF02F0000E726F000E736F04
:10058800000E746F000E756F7F51D8B4CEEF02F075
:10059800D0EF02F0D8EF02F08051D8A4D6EF02F0E5
:1005A800D8EF02F0E2EF02F0000E6E6F000E6F6FF0
:1005B800000E706F000E716F78EF04F074516E03C7
:1005C800F3CF85F0F4CF86F085517B6F7C6B7D6B24
:1005D8007E6B8651816F826B836B846B73516F0363
:1005E800F3CF85F0F4CF86F085517B27000E7C236E
:1005F8007D237E2386518127000E82238323842333
:1006080072517003F3CF85F0F4CF86F085517B27C4
:10061800000E7C237D237E2386518127000E8223B2
:10062800832384237DC07EF07CC07DF07BC07CF07A
:100638007B6B72516F03F3CF85F0F4CF86F0855151
:100648007B2786517C23000E7D23000E7E23735169
:100658006E03F3CF85F0F4CF86F085517B27865162
:100668007C23000E7D23000E7E237DC07EF07CC09F
:100678007DF07BC07CF07B6B72516E03F3CF85F00D
:10068800F4CF86F085517B2786517C23000E7D238D
:10069800000E7E2374516F03F3CF85F0F4CF86F0FC
:1006A8008551812786518223000E8323000E8423DF
:1006B80073517003F3CF85F0F4CF86F0855181270D
:1006C80086518223000E8323000E84237451700305
:1006D800F3CF85F0F4CF86F08551766F8651776F2A
:1006E800786B796B78C079F077C078F076C077F05E
:1006F800766B7651812777518223785183237951FC
:1007080084237BC076F07CC077F07DC078F07EC013
:1007180079F0190E95EF03F0D89079337833773361
:100728007633E82E90EF03F07651812777518223B4
:1007380078518323795184237DC07EF07CC07DF07D
:100748007BC07CF07B6B7F5180C076F0776B76271F
:10075800000E7723820E7625856FFF0E7721866F30
:10076800CBEF03F0D89081378237833784377EAF59
:10077800C0EF03F0C2EF03F0C3EF03F08181D8901C
:100788007B377C377D377E378507D8A0860783AFD0
:10079800D0EF03F0D2EF03F0B6EF03F07F6B7EAF3C
:1007A800D8EF03F0DAEF03F0FEEF03F0FF0E7B154E
:1007B800766FFF0E7C15776FFF0E7D15786F7F0EB5
:1007C8007E15796F7651771178117911D8B4EFEFDA
:1007D80003F0F1EF03F0F5EF03F0010E7F6FFEEF8A
:1007E80003F081A1FAEF03F0FCEF03F0FEEF03F052
:1007F800F1EF03F07F51D8B404EF04F006EF04F0F2
:100808002AEF04F0010E8127000E8223832384231C
:1008180084A111EF04F013EF04F02AEF04F081C073
:1008280076F082C077F083C078F084C079F07935AB
:10083800793378337733763376C081F077C082F0B6
:1008480078C083F079C084F0854B862B86BF35EF5E
:1008580004F0865108E18529D8A035EF04F037EF78
:1008680004F041EF04F0000E816F000E826F800EDD
:10087800836F7F0E846F6EEF04F086BF4EEF04F037
:10088800865106E18505D8B04CEF04F04EEF04F030
:1008980059EF04F0000E816F000E826F000E836F17
:1008A800000E846F7A6B6EEF04F085C080F0FF0E47
:1008B8008117FF0E82177F0E8317000E841780A101
:1008C80068EF04F06AEF04F06BEF04F0838FD890C0
:1008D8008031846F7A51841381C06EF082C06FF0CA
:1008E80083C070F084C071F01200BAEC1AF098EC72
:1008F8001BF0A0EC1BF0D6EC17F08FEC1AF0A7EC6D
:100908001BF0070E0001636F000E646F7F0E656FAA
:10091800000E85EC18F0050E0001FE6F0F0EFD6F3E
:10092800F10EE82EFED7FD2FFCD7FE2FFAD7D80EF2
:1009380000017C6F7F0E7D6F020E7E6F80EC15F0DC
:10094800020E0001FE6F040EFD6FBA0EE82EFED7F0
:10095800FD2FFCD7FE2FFAD70000E00E00017C6FB8
:100968007F0E7D6F040E7E6F80EC15F0900E0001F7
:10097800616F7F0E626F36EC19F0290E0001FE6F71
:10098800960EFD6F7F0EE82EFED7FD2FFCD7FE2FAB
:10099800FAD7070E0001636F000E646F7F0E656F54
:1009A800000E85EC18F0F30E00016D6F7F0E6E6F70
:1009B800000E6F6F720E706FFEEC19F0A10E000141
:1009C800616F7F0E626F36EC19F083A0EEEF04F0D2
:1009D800F0EF04F003EF05F083A2F5EF04F0F7EF72
:1009E80004F003EF05F001017E517F11D8A4FFEF59
:1009F80004F001EF05F003EF05F0F080F0823FEC22
:100A08000EF02EEC18F097C0F1F098C0F2F099C0F3
:100A1800F3F09AC0F4F079EC14F0F1C05AF1F2C096
:100A28005BF1FDEC0BF0EDC0F1F0EEC0F2F0EFC0C1
:100A3800F3F0F0C0F4F079EC14F0F1C05CF1F2C01E
:100A48005DF1140E00017D6F010E7E6FD00E7F6F79
:100A58007F0E806F5AC181F05BC182F05CC183F068
:100A68005DC184F0DCEC19F0140E0001616F010E19
:100A7800626F36EC19F083A444EF05F046EF05F0F9
:100A880053EF05F0320E00017D6F010E7E6FB20E3E
:100A98007F6F7F0E806FDCEC19F05EEF05F0320E91
:100AA80000017D6F010E7E6F720E7F6F7F0E806F6B
:100AB800DCEC19F0320E0001606F010E616F940ECC
:100AC800626F010E636FFEEC18F000016051611156
:100AD800D8B471EF05F073EF05F099EF05F0940EB7
:100AE800606F010E616F320E626F010E636F3DEC35
:100AF8001AF0010E0001636F000E646F7F0E656FC0
:100B0800000E85EC18F083A48CEF05F08EEF05F04D
:100B180099EF05F0F00E00016D6F7F0E6E6F000EFD
:100B28006F6F000E706FFEEC19F0460E00017D6FBE
:100B3800010E7E6FEB0E7F6F7F0E806F5CC181F0C0
:100B48005DC182F0000E846FF80E836FDCEC19F043
:100B5800460E0001606F010E616F800E626F010E1C
:100B6800636FFEEC18F0000160516111D8B4BFEF5B
:100B780005F0C1EF05F0DEEF05F0800E606F010EA5
:100B8800616F460E626F010E636F3DEC1AF0020E44
:100B98000001636F000E646F7F0E656F010E85ECB8
:100BA80018F0460E00017C6F010E7D6F030E7E6FFC
:100BB80080EC15F001015BBFEDEF05F0EF0E5A5D1B
:100BC800010E5B59D8B0EBEF05F0EDEF05F0FAEF49
:100BD80005F0F70E00016D6F7F0E6E6F000E6F6FE0
:100BE8006A0E706FFEEC19F020EF06F05BBF06EF9F
:100BF80006F0180E5A5D020E5B59D8A006EF06F0F3
:100C080008EF06F015EF06F0F50E00016D6F7F0E88
:100C18006E6F000E6F6F6A0E706FFEEC19F020EFAA
:100C280006F0FD0E00016D6F7F0E6E6F000E6F6F88
:100C38006A0E706FFEEC19F001015DBF2DEF06F032
:100C48005D5109E1090E5C5DD8A02DEF06F02FEF8C
:100C580006F03CEF06F0FB0E00016D6F7F0E6E6F25
:100C6800000E6F6F7A0E706FFEEC19F062EF06F0EF
:100C78005DAF48EF06F0F80E5C5DFF0E5D59D8B029
:100C880048EF06F04AEF06F057EF06F0F90E0001BC
:100C98006D6F7F0E6E6F000E6F6F7A0E706FFEECC9
:100CA80019F062EF06F0FD0E00016D6F7F0E6E6F9A
:100CB800000E6F6F7A0E706FFEEC19F0020E0001D5
:100CC800FE6F6C0EFD6F9F0EE82EFED7FD2FFCD732
:100CD800FE2FFAD700D0E9EF04F007EF00F060C06C
:100CE80081F061C082F062C083F063C084F0000EBE
:100CF80000018115646F000E8215656F800E8315E3
:100D0800666F7F0E8415676F800E661909E17F0E86
:100D1800671964116511D8A494EF06F096EF06F0F0
:100D2800C6EF06F0FF0E8115646FFF0E8215656F22
:100D38007F0E8315666F000E8415676F6451651109
:100D480066116711D8A4ABEF06F0ADEF06F0B4EF6B
:100D580006F084BFB4EF06F0B2EF06F0BCEF06F081
:100D6800FF0E8113FF0E82137F0E8313000E841370
:100D780081C060F082C061F083C062F084C063F01B
:100D880062EF08F084BFD5EF06F084518311821119
:100D980006E18105D8B0D3EF06F0D5EF06F00BEFEA
:100DA80007F0FF0E8115646FFF0E8215656FFF0E49
:100DB8008315666F7F0E8415676F64516511661120
:100DC8006711D8A4EAEF06F0ECEF06F0F6EF06F0AC
:100DD800000E606F000E616F000E626F000E636F91
:100DE80062EF08F084BFFDEF06F0FBEF06F00BEFB3
:100DF80007F0000E556E210E546EFF0E816FFF0E28
:100E0800826FFF0E836F7F0E846FBCEF06F0170EA4
:100E1800646F81C065F082C066F083C067F084C0EB
:100E280068F064671AEF07F022EF07F06835683357
:100E3800673366336533642F15EF07F065C079F0C3
:100E480066C07AF067C07BF068C07CF00001795119
:100E58007A117B117C11D8A434EF07F036EF07F034
:100E680066EF07F0000E6D6F000E6E6F000E6F6F6D
:100E7800000E706F4BEF07F0D890813782378337B9
:100E88008437010E6D27000E6E236F23702383AF06
:100E980050EF07F052EF07F040EF07F0FF0E6D2517
:100EA800646FFF0E6E21656FFF0E6F21666FFF0E78
:100EB8007021676F6451795F65517A5B66517B5B1E
:100EC80067517C5B810E7927FF0E7A23FF0E7B2307
:100ED800FF0E7C23FF0E8115646FFF0E8215656F70
:100EE8007F0E8315666F000E8415676F000E641100
:100EF800816F000E6511826F800E6611836F000E80
:100F08006711846F79A18BEF07F08DEF07F095EFEC
:100F180007F0815181278251822383518323845191
:100F280084237C357C337B337A3379338151812731
:100F3800825182238351832384518423000E696F55
:100F4800000E6A6F000E6B6F000E6C6F69C071F057
:100F58006AC072F06BC073F06CC074F0000E7D6FE5
:100F6800000E7E6F000E7F6F010E806F04EF08F099
:100F780069517D25756F6A517E21766F6B517F218E
:100F8800776F6C518021786F7551815D76518259E8
:100F9800775183598451800A646F7851800A645963
:100FA800D8A0D9EF07F0DBEF07F0F7EF07F075519E
:100FB8007D25696F76517E216A6F77517F216B6F2E
:100FC800785180216C6F7551815F7651825B7751C2
:100FD800835B7851845B7D5171277E5172237F51E9
:100FE8007323805174238151812782518223835135
:100FF800832384518423D89080337F337E337D3399
:101008007D517E117F118011D8A40DEF08F00FEFEC
:1010180008F0BCEF07F08151821183118411D8B414
:1010280018EF08F01AEF08F02EEF08F0010E71150E
:10103800646F000E7215656F000E7315666F000EF3
:101048007415676F64517127655172236651732354
:101058006751742371C064F072C065F073C066F0A4
:1010680074C067F067356733663365336433000EE1
:101078006425816F000E6521826F000E6621836FE3
:101088003F0E6721846F79C064F07AC065F07BC039
:1010980066F07CC067F0170ED890643765376637FE
:1010A8006737E82E50EF08F0645181276551822395
:1010B8006651832367518423BCEF06F01200CCC02D
:1010C800E9F0CDC0EAF0CEC0EBF0CFC0ECF0000103
:1010D800ECBF71EF08F074EF08F0010E75EF08F03F
:1010E800000EE06FFF0EE915E96FFF0EEA15EA6FD3
:1010F800FF0EEB15EB6F7F0EEC15EC6F800EEB5DC2
:101108003F0EEC59D8A08BEF08F08DEF08F0E0EF18
:1011180008F0800EEB1909E13F0EEC19E911EA110C
:10112800D8A499EF08F09BEF08F0CAEF08F0DB0E9F
:10113800726F0F0E736FC90E746F3F0E756FCCC050
:101148006EF0CDC06FF0CEC070F0CFC071F065EC1E
:1011580002F06EC087F06FC088F070C089F071C06F
:101168008AF0000E00018B6F000E8C6F800E8D6F61
:10117800030E8E6F09EC00F087C0CCF088C0CDF06C
:1011880089C0CEF08AC0CFF033EF0AF0000E556E5A
:10119800210E546EFF0EE96FFF0EEA6FFF0EEB6F24
:1011A8007F0EEC6FE9C0CCF0EAC0CDF0EBC0CEF01A
:1011B800ECC0CFF033EF0AF03F0EEC5DD8B0E7EFAC
:1011C80008F0E9EF08F063EF09F0800EEB5D390EE7
:1011D800EC59D8B0F2EF08F0F4EF08F009EF09F095
:1011E800EC5109E1800EEB5DD8A0FDEF08F0FFEFB0
:1011F80008F009EF09F0CCC0CCF0CDC0CDF0CEC0DE
:10120800CEF0CFC0CFF033EF0AF0CCC072F0CDC033
:1012180073F0CEC074F0CFC075F0CCC06EF0CDC006
:101228006FF0CEC070F0CFC071F065EC02F06EC008
:10123800D0F06FC0D1F070C0D2F071C0D3F0D0C080
:10124800B0F0D1C0B1F0D2C0B2F0D3C0B3F025EC49
:1012580013F0B0C0D4F0B1C0D5F0B2C0D6F0B3C06E
:10126800D7F0CCC072F0CDC073F0CEC074F0CFC050
:1012780075F0D4C06EF0D5C06FF0D6C070F0D7C08E
:1012880071F065EC02F06EC087F06FC088F070C036
:1012980089F071C08AF0CCC08BF0CDC08CF0CEC084
:1012A8008DF0CFC08EF009EC00F087C0CCF088C07C
:1012B800CDF089C0CEF08AC0CFF033EF0AF0CCC0B1
:1012C80060F0CDC061F0CEC062F0CFC063F074ECC6
:1012D8001AF060C0C8F061C0C9F062C0CAF063C04B
:1012E800CBF0000E0001C46F000EC56F800EC66FF4
:1012F8003F0EC76F95EC19F0C4C06EF0C5C06FF013
:10130800C6C070F0C7C071F0000E0001726F000E09
:10131800736F000E746F3F0E756F65EC02F06EC050
:10132800E5F06FC0E6F070C0E7F071C0E8F0E5C026
:1013380060F0E6C061F0E7C062F0E8C063F073EC0B
:1013480006F060C0E1F061C0E2F062C0E3F063C0A3
:10135800E4F0E5C0B0F0E6C0B1F0E7C0B2F0E8C034
:10136800B3F025EC13F0B0C0D8F0B1C0D9F0B2C0DA
:10137800DAF0B3C0DBF0E1C08BF0E2C08CF0E3C080
:101388008DF0E4C08EF0E1C072F0E2C073F0E3C00B
:1013980074F0E4C075F0D8C06EF0D9C06FF0DAC050
:1013A80070F0DBC071F065EC02F06EC087F06FC0C2
:1013B80088F070C089F071C08AF009EC00F087C02D
:1013C800DCF088C0DDF089C0DEF08AC0DFF0DB0E1B
:1013D8000001C46F0F0EC56FC90EC66F3F0EC76FF1
:1013E800000E726F000E736F000E746F400E756FF3
:1013F800DCC06EF0DDC06FF0DEC070F0DFC071F0F1
:1014080065EC02F06EC0C8F06FC0C9F070C0CAF0D9
:1014180071C0CBF095EC19F0C4C0CCF0C5C0CDF0CC
:10142800C6C0CEF0C7C0CFF00001E051D8B41FEF5E
:101438000AF021EF0AF0FFEF08F0CCC060F0CDC051
:1014480061F0CEC062F0CFC063F020EC1AF060C04B
:10145800CCF061C0CDF062C0CEF063C0CFF0120016
:1014680000019A51800BA76F9A519A25AE6F99AFD8
:1014780040EF0AF042EF0AF043EF0AF0AE81AE51B6
:10148800D8B449EF0AF04BEF0AF05FEF0AF0AE2943
:10149800D8A451EF0AF053EF0AF05BEF0AF0000E00
:1014A800976F000E986F000E996F000E9A6F998FC4
:1014B8009A6B67EF0AF0000E976F000E986F000E98
:1014C800996F000E9A6F9E51800BA71B9E519E2507
:1014D800AF6F9DAF72EF0AF074EF0AF075EF0AF084
:1014E800AF81AF51D8B47BEF0AF07DEF0AF091EFEE
:1014F8000AF0AF29D8A483EF0AF085EF0AF08DEF40
:101508000AF0000E9B6F000E9C6F000E9D6F000E80
:101518009E6F9D8F9E6B99EF0AF0000E9B6F000ED9
:101528009C6F000E9D6F000E9E6F9B519C119D112C
:101538009E11D8A4A2EF0AF0A4EF0AF0BCEF0AF0BB
:10154800000E976F000E986F000E996F000E9A6F3D
:10155800800E99137F0E9A13A7519A1397C097F08C
:1015680098C098F099C099F09AC09AF0FCEF0BF0E7
:10157800AE51D8A4C2EF0AF0C4EF0AF0CEEF0AF0D9
:10158800000E976F000E986F000E996F000E9A6FFD
:10159800FCEF0BF0AF51AEC09FF0A06B9F5F000E49
:1015A800A05B7F0E9F25A86F000EA021A96F97C092
:1015B800A3F098C0A4F099C0A5F09AC0A6F0000EB8
:1015C800976F000E986F000E996F000E9A6F000EBD
:1015D800AA6F000EAB6F000EAC6F000EAD6FAF6B55
:1015E8002EEF0BF0AF51D8B4FCEF0AF0FEEF0AF083
:1015F80015EF0BF0D890A337A437A537A637D890A6
:101608009737983799379A37ADAF0DEF0BF00FEF43
:101618000BF010EF0BF09781D890AA37AB37AC37A7
:10162800AD379B51A35D9C51A4599D51A5599E511D
:10163800A659D8A022EF0BF024EF0BF02DEF0BF0FA
:10164800AD8D9B51A35F9C51A45B9D51A55B9E51A1
:10165800A65BAF2B190EAF6534EF0BF036EF0BF02E
:10166800F6EF0AF0A351A411A511A611D8B43FEFC3
:101678000BF041EF0BF059EF0BF0AA8159EF0BF08B
:10168800D8909737983799379A37ADAF4EEF0BF018
:1016980050EF0BF051EF0BF09781D890AA37AB378A
:1016A800AC37AD37A807D8A0A90799AF5EEF0BF004
:1016B80060EF0BF044EF0BF0AF6BADAF66EF0BF0E4
:1016C80068EF0BF08CEF0BF0FF0EAA159F6FFF0E63
:1016D800AB15A06FFF0EAC15A16F7F0EAD15A26FF5
:1016E8009F51A011A111A211D8B47DEF0BF07FEF8B
:1016F8000BF083EF0BF0010EAF6F8CEF0BF097A19F
:1017080088EF0BF08AEF0BF08CEF0BF07FEF0BF00C
:10171800AF51D8B492EF0BF094EF0BF0B8EF0BF099
:10172800010E9727000E982399239A239AA19FEFD9
:101738000BF0A1EF0BF0B8EF0BF097C09FF098C03B
:10174800A0F099C0A1F09AC0A2F0A235A233A133AB
:10175800A0339F339FC097F0A0C098F0A1C099F024
:10176800A2C09AF0A84BA92BA9BFC3EF0BF0A951AF
:1017780008E1A829D8A0C3EF0BF0C5EF0BF0D0EF14
:101788000BF0000EA96FA869000E976F000E986FF6
:10179800000E996F000E9A6FA9BFDDEF0BF0A951EB
:1017A80006E1A805D8B0DBEF0BF0DDEF0BF0EAEFB0
:1017B8000BF0000EA96F000EA86F000E976F000EB9
:1017C800986F000E996F000E9A6FA76BA8C0AEF0C5
:1017D800AEA1F1EF0BF0F3EF0BF0F6EF0BF0998FF2
:1017E800F7EF0BF0999FD890AE319A6FB0EF0AF0EF
:1017F8001200C298C296C284C282C2B206EF0CF02E
:1018080008EF0CF001EF0CF0000E0001726F000EF3
:10181800736F800E746F430E756FC450606F616B89
:10182800626B636B010E49EC12F060C06EF061C030
:101838006FF062C070F063C071F065EC02F06EC0CA
:1018480087F06FC088F070C089F071C08AF0C3500B
:101858000001606F616B626B636B010E49EC12F003
:1018680060C08BF061C08CF062C08DF063C08EF0F8
:1018780009EC00F087C000F188C001F189C002F1CD
:101888008AC003F1000E0001726F000E736FA00E84
:10189800746F400E756F00C16EF001C16FF002C128
:1018A80070F003C171F065EC02F06EC097F06FC084
:1018B80098F070C099F071C09AF0000E00019B6F0B
:1018C800C00E9C6F7F0E9D6F440E9E6F34EC0AF025
:1018D80097C004F198C005F199C006F19AC007F1C4
:1018E800660E00018B6F660E8C6F160E8D6FC00E24
:1018F8008E6F04C187F005C188F006C189F007C161
:101908008AF009EC00F087C097F088C098F089C089
:1019180099F08AC09AF05C0E00019B6F8F0E9C6F45
:10192800420E9D6F3F0E9E6F34EC0AF097C010F187
:1019380098C011F199C012F19AC013F1000E00017C
:10194800606F000E616F800E626F3F0E636F10C193
:1019580064F011C165F012C166F013C167F0FDECC7
:1019680014F00001D8B0BBEF0CF0BDEF0CF0C6EFDF
:101978000CF0000E0101106F000E116F800E126F37
:101988003F0E136F10C160F011C161F012C162F017
:1019980013C163F0000E0001646F000E656F800EC6
:1019A800666FBF0E676FFDEC14F00001D8B0DFEF73
:1019B8000CF0E1EF0CF0EAEF0CF0000E0101106FF3
:1019C800000E116F800E126FBF0E136F10C1CCF096
:1019D80011C1CDF012C1CEF013C1CFF063EC08F005
:1019E800CCC00CF1CDC00DF1CEC00EF1CFC00FF1BF
:1019F8000CC16EF00DC16FF00EC170F00FC171F027
:101A0800E10E0001726F2E0E736F650E746F420E39
:101A1800756F65EC02F06EC008F16FC009F170C017
:101A28000AF171C00BF108C1EDF009C1EEF00AC16D
:101A3800EFF00BC1F0F0120000016B51D96EDA6AB9
:101A4800DECFF6FFDDCFF7FF0800F550250AD8A452
:101A580030EF0DF032EF0DF02DEF0EF06B51D96E27
:101A6800DA6ADE2A000EDD22000E516E000E506E7C
:101A780050C0FFF0526853686B51D96EDA6ADECFF6
:101A8800F6FFDDCFF7FF0800F550630AD8A44FEF43
:101A98000DF051EF0DF06AEF0DF06B51D96EDA6A67
:101AA800DE2A000EDD226C51D96EDA6ADF50DF2A99
:101AB800DF2AD96EDA6ADF50766F76C060F0616B24
:101AC8006AC062F020EC17F03EEF0EF06B51D96E51
:101AD800DA6ADECF70F0DDCF71F070C0F6FF71C04A
:101AE800F7FF0800F550640AD8B47DEF0DF07FEFDA
:101AF8000DF08DEF0DF070C0F6FF71C0F7FF080014
:101B0800F550690AD8A48BEF0DF08DEF0DF024EF96
:101B18000EF06C51D96EDA6A020EDF26DF5CD96EE0
:101B2800DA6ADECF72F0DECF73F0010E70256D6FCA
:101B3800000E71216E6F6B51D96EDA6A6DC0DEFFCF
:101B48006EC0DDFF200E766F73BFADEF0DF0B0EF06
:101B58000DF0010EB1EF0DF0000E6F6F76075E0EFF
:101B68007625D96EDA6A010EDA2272C060F073C087
:101B780061F0000E636F0A0E626F7EEC17F060C0B2
:101B880066F061C067F059EC1AF000016651300F39
:101B9800DF6E72C060F073C061F0000E636F0A0EF2
:101BA800626F5DEC16F060C072F061C073F0000106
:101BB80072517311D8B4E3EF0DF0E5EF0DF0EDEFCE
:101BC8000DF07651D8A4EBEF0DF0EDEF0DF0B2EF7C
:101BD8000DF07651D8B4F3EF0DF0F5EF0DF019EFE5
:101BE8000EF06F51D8B4FBEF0DF0FDEF0DF019EFCB
:101BF8000EF076075E0E7625D96EDA6A010EDA22C5
:101C08002D0EDF6E19EF0EF05E0E7625D96EDA6AAC
:101C1800010EDA22DF506D6F6D51606F616B6AC023
:101C280062F020EC17F00001762B200E7619D8A46C
:101C380020EF0EF022EF0EF008EF0EF03EEF0EF060
:101C480000016B51D96EDA6ADE2A000EDD223EEF02
:101C58000EF06B51D96EDA6ADECFF6FFDDCFF7FFF3
:101C68000800F550606F616B6AC062F020EC17F0F5
:101C780024EF0EF01200FDEC0BF0EDC0F1F0EEC019
:101C8800F2F0EFC0F3F0F0C0F4F079EC14F0F1C02A
:101C9800FBF0F2C0FCF083880001FCBF5FEF0EF0A0
:101CA800FC5107E10A0EFB5DD8B05DEF0EF05FEF67
:101CB8000EF070EF0EF0FCAF6DEF0EF0F70EFB5D5F
:101CC800FF0EFC59D8A06BEF0EF06DEF0EF070EF21
:101CD8000EF083984DEF0FF08388FCAF7DEF0EF088
:101CE800BB0EFB5DFF0EFC59D8B07DEF0EF07FEF09
:101CF8000EF084EF0EF0839A839C839E4DEF0FF0D5
:101D0800FCAF92EF0EF0BB0EFB5DFF0EFC59D8A0A6
:101D180090EF0EF092EF0EF0A5EF0EF0FCAF9EEFF5
:101D28000EF0CF0EFB5DFF0EFC59D8B09EEF0EF003
:101D3800A0EF0EF0A5EF0EF0839A839C838E4DEFF3
:101D48000FF0FCAFB3EF0EF0CF0EFB5DFF0EFC59AA
:101D5800D8A0B1EF0EF0B3EF0EF0C6EF0EF0FCAF67
:101D6800BFEF0EF0E30EFB5DFF0EFC59D8B0BFEFDE
:101D78000EF0C1EF0EF0C6EF0EF0839A838C839EAF
:101D88004DEF0FF0FCAFD4EF0EF0E30EFB5DFF0E4E
:101D9800FC59D8A0D2EF0EF0D4EF0EF0E7EF0EF01A
:101DA800FCAFE0EF0EF0F70EFB5DFF0EFC59D8B06C
:101DB800E0EF0EF0E2EF0EF0E7EF0EF0839A838C7F
:101DC800838E4DEF0FF0FCBFF3EF0EF0FC5109E1ED
:101DD8000B0EFB5DD8A0F3EF0EF0F5EF0EF008EF59
:101DE8000FF0FCBF03EF0FF0FC5107E11F0EFB5D86
:101DF800D8B001EF0FF003EF0FF008EF0FF0838A70
:101E0800839C839E4DEF0FF0FCBF14EF0FF0FC5145
:101E180009E11F0EFB5DD8A014EF0FF016EF0FF0CD
:101E280029EF0FF0FCBF24EF0FF0FC5107E1330E50
:101E3800FB5DD8B022EF0FF024EF0FF029EF0FF081
:101E4800838A839C838E4DEF0FF0FCBF35EF0FF034
:101E5800FC5109E1330EFB5DD8A035EF0FF037EFE9
:101E68000FF04AEF0FF0FCBF45EF0FF0FC5107E110
:101E7800470EFB5DD8B043EF0FF045EF0FF04AEF88
:101E88000FF0838A838C839E4DEF0FF0838A838CB7
:101E9800838E12000600E1CF2BF0E2CF2CF0D9CFD1
:101EA8002DF0DACF2EF0F3CF2FF0F4CF30F0F6CFBD
:101EB80031F0F7CF32F0F8CF33F0F5CF34F0F0A0AF
:101EC80068EF0FF06AEF0FF03CEF10F0F0A26FEF41
:101ED8000FF071EF0FF03CEF10F0000E01017F6F73
:101EE800010E7E6F839A839C839E83984E0E026EAA
:101EF8007F0E036E66EC19F0030E2A6E080E296E2B
:101F0800770EE82EFED7292EFCD72A2EFAD7000006
:101F1800070E046E000E056E7F0E066E000EC5ECF1
:101F280018F0030E2A6E080E296E770EE82EFED7DB
:101F3800292EFCD72A2EFAD70000C60E1D6E7F0E5A
:101F48001E6E020E1F6EF1EC15F0020E2A6E040EC4
:101F5800296EBA0EE82EFED7292EFCD72A2EFAD7DC
:101F680000D0E60E1D6E7F0E1E6E040E1F6EF1EC85
:101F780015F0F090F092C8EF0FF0340E296EF20EC3
:101F8800E82EFED7292EFCD783B0CDEF0FF0CFEF88
:101F98000FF0C1EF0FF083B2D4EF0FF0D6EF0FF0D0
:101FA800C1EF0FF083A0DBEF0FF0DDEF0FF02EEFA6
:101FB80010F083A2E2EF0FF0E4EF0FF02EEF10F035
:101FC800030E2A6E080E296E770EE82EFED7292EEC
:101FD800FCD72A2EFAD7000083A0F5EF0FF0F7EF11
:101FE8000FF02EEF10F083A2FCEF0FF0FEEF0FF0D2
:101FF8002EEF10F0730E026E7F0E036E66EC19F072
:10200800070E046E000E056E7F0E066E000EC5EC00
:1020180018F0030E2A6E080E296E770EE82EFED7EA
:10202800292EFCD72A2EFAD70000BC0E1D6E7F0E73
:102038001E6E030E1F6EF1EC15F0150E2A6E4B0E78
:10204800296EBE0EE82EFED7292EFCD72A2EFAD7E7
:1020580000D0FF00020E2A6E040E296EBA0EE82E7A
:10206800FED7292EFCD72A2EFAD700D0D6EF0FF0AC
:1020780034C0F5FF33C0F8FF32C0F7FF31C0F6FFB8
:1020880030C0F4FF2FC0F3FF2EC0DAFF2DC0D9FFF8
:102098002CC0E2FF2BC0E1FF5692110000017B6FBC
:1020A8002F0E00017B655BEF10F05DEF10F06AEF1B
:1020B80010F03A0E7B6163EF10F065EF10F06AEFF5
:1020C80010F07B51D10F756FA3EF10F0400E7B65B8
:1020D80070EF10F072EF10F07FEF10F05B0E7B6185
:1020E80078EF10F07AEF10F07FEF10F07B51CC0F03
:1020F800756FA3EF10F0F80E7B19D8A486EF10F0D7
:1021080088EF10F08CEF10F00B0E756FA3EF10F046
:102118002D0E7B19D8A493EF10F095EF10F099EFDE
:1021280010F00C0E756FA3EF10F0200E7B19D8A4D9
:10213800A0EF10F0A2EF10F050EF11F0756B7A6B72
:102148007551050D770EF3246B6F7E0EF4206C6FBE
:102158007A516B27000E6C236BC0F6FF6CC0F7FF3B
:102168000800F5CF70F04DC06DF04EC06EF04FC056
:102178006FF0766B786B78C06BF070C06CF06B2B7F
:10218800C8EF10F0D8906C336B2FC6EF10F0000139
:102198006C51010B716F746BFEEF10F076C060F03C
:1021A800616B000E636F080E626F5DEC16F0000144
:1021B8006051726F7651070B736F7151D8B4E7EFA6
:1021C80010F0E9EF10F0FCEF10F073C06BF0010EA7
:1021D8006C6F6B2BF2EF10F0D8906C376B2FF0EF21
:1021E80010F0000172516D0FD96EDA6A6C51DF126E
:1021F800762B742B6851745DD8A005EF11F007EFAA
:1022080011F0D2EF10F0782B060E78650EEF11F072
:1022180010EF11F0BFEF10F0776B3EEF11F0796B14
:1022280034EF11F07A516803F3506A257725636F0C
:1022380069517925CFEC1AF06CEC1BF0780E3AEC6A
:102248001BF0400E3AEC1BF0000179516D0FD96E6E
:10225800DA6ADF503AEC1BF061EC1BF00001792BD5
:102268006851795DD8A03BEF11F03DEF11F016EF02
:1022780011F0772B6851775DD8A045EF11F047EF43
:1022880011F013EF11F07A2B040E7A654EEF11F06E
:1022980050EF11F0A4EF10F012001C6E2F0E1C640A
:1022A80058EF11F05AEF11F067EF11F03A0E1C6079
:1022B80060EF11F062EF11F067EF11F01C50D10FD1
:1022C800166EA0EF11F0400E1C646DEF11F06FEF69
:1022D80011F07CEF11F05B0E1C6075EF11F077EFD9
:1022E80011F07CEF11F01C50CC0F166EA0EF11F01E
:1022F800F80E1C18D8A483EF11F085EF11F089EFC0
:1023080011F00B0E166EA0EF11F02D0E1C18D8A4AC
:1023180090EF11F092EF11F096EF11F00C0E166E8F
:10232800A0EF11F0200E1C18D8A49DEF11F09FEF1C
:1023380011F048EF12F0166A1B6A1650050D770E59
:10234800F3240C6E7E0EF4200D6E1B500C26000E2E
:102358000D220CC0F6FF0DC0F7FF0800F5CF11F0F5
:102368004DC00EF04EC00FF04FC010F0176A196A3A
:1023780019C00CF011C00DF00C2AC5EF11F0D8905F
:102388000D320C2EC3EF11F00D50010B126E156AB1
:10239800F8EF11F017C001F0026A000E046E080E83
:1023A800036EBFEC16F00150136E1750070B146E36
:1023B8001250D8B4E2EF11F0E4EF11F0F6EF11F09B
:1023C80014C00CF0010E0D6E0C2AEDEF11F0D89030
:1023D8000D360C2EEBEF11F013500E0FD96EDA6A92
:1023E8000D50DF12172A152A0950155CD8A0FFEFE7
:1023F80011F001EF12F0CEEF11F0192A060E196450
:1024080008EF12F00AEF12F0BCEF11F0186A36EF7D
:1024180012F01A6A2CEF12F01B500902F3500B2429
:102428001824046E0A501A241BEC1BF08DEC1BF0C8
:10243800780E48EC1BF0400E48EC1BF01A500E0FBB
:10244800D96EDA6ADF5048EC1BF082EC1BF01A2ACE
:1024580009501A5CD8A033EF12F035EF12F010EFE4
:1024680012F0182A0950185CD8A03DEF12F03FEF7F
:1024780012F00DEF12F01B2A040E1B6446EF12F047
:1024880048EF12F0A1EF11F012000001686F00018F
:102498006851D8B452EF12F054EF12F076EF12F000
:1024A80063BF5BEF12F059EF12F076EF12F060C0E5
:1024B80064F061C065F062C066F063C067F0641FD5
:1024C800651F661F671F642B000E6523662367233D
:1024D80064C06AF065C06BF066C06CF067C06DF0F0
:1024E8007EEF12F060C06AF061C06BF062C06CF001
:1024F80063C06DF06051611162116311D8A487EF58
:1025080012F089EF12F093EF12F0000E606F000ED8
:10251800616F000E626F000E636F24EF13F0960E6A
:10252800696F9DEF12F0692BD8906D336C336B3364
:102538006A33000E6A15646F000E6B15656F000E26
:102548006C15666FFE0E6D15676F64516511661127
:102558006711D8A4B2EF12F0B4EF12F097EF12F0AF
:10256800C2EF12F0692B010E6A27000E6B236C2351
:102578006D23D8906D336C336B336A33000E6A1554
:10258800646F000E6B15656F000E6C15666FFF0E9D
:102598006D15676F6451651166116711D8A4D7EF7F
:1025A80012F0D9EF12F0B6EF12F0E1EF12F069076E
:1025B800D8906A376B376C376D376CBFE6EF12F01F
:1025C800E8EF12F0F0EF12F0020E6961EEEF12F090
:1025D800F0EF12F0DBEF12F069B1F5EF12F0F7EF60
:1025E80012F0F8EF12F06C9FD890693369C064F06C
:1025F800656B666B676B64C067F0666B656B646B75
:1026080064516A1365516B1366516C1367516D13EE
:102618006851D8B412EF13F014EF13F01CEF13F055
:1026280063BF1BEF13F019EF13F01CEF13F06D8F5E
:102638006AC060F06BC061F06CC062F06DC063F09E
:102648001200BA0E00018B6F130E8C6F2F0E8D6F58
:10265800BD0E8E6F6B0E726FD30E736F0D0E746F8F
:10266800BC0E756FB0C06EF0B1C06FF0B2C070F044
:10267800B3C071F065EC02F06EC087F06FC088F0EF
:1026880070C089F071C08AF009EC00F087C0BCF016
:1026980088C0BDF089C0BEF08AC0BFF0750E0001C9
:1026A8008B6FAA0E8C6F2A0E8D6F3E0E8E6FB0C088
:1026B80072F0B1C073F0B2C074F0B3C075F0BCC0B2
:1026C8006EF0BDC06FF0BEC070F0BFC071F065ECB9
:1026D80002F06EC087F06FC088F070C089F071C0DA
:1026E8008AF009EC00F087C0C0F088C0C1F089C04A
:1026F800C2F08AC0C3F0C0C06EF0C1C06FF0C2C0E3
:1027080070F0C3C071F0B0C072F0B1C073F0B2C065
:1027180074F0B3C075F065EC02F06EC0B4F06FC031
:10272800B5F070C0B6F071C0B7F0AE0E0001726FB0
:10273800E50E736F340E746FBF0E756FB0C06EF018
:10274800B1C06FF0B2C070F0B3C071F065EC02F0C8
:102758006EC087F06FC088F070C089F071C08AF0D1
:10276800000E00018B6F000E8C6F800E8D6F3F0E78
:102778008E6F09EC00F087C0B8F088C0B9F089C046
:10278800BAF08AC0BBF0B4C097F0B5C098F0B6C034
:1027980099F0B7C09AF0B8C09BF0B9C09CF0BAC025
:1027A8009DF0BBC09EF034EC0AF097C0B0F098C022
:1027B800B1F099C0B2F09AC0B3F0120000016C6F8A
:1027C8002F0E00016C65EBEF13F0EDEF13F0FAEF4D
:1027D80013F03A0E6C61F3EF13F0F5EF13F0FAEF24
:1027E80013F06C51D10F6A6F33EF14F0400E6C6523
:1027F80000EF14F002EF14F00FEF14F05B0E6C61B1
:1028080008EF14F00AEF14F00FEF14F06C51CC0F2E
:102818006A6F33EF14F0F80E6C19D8A416EF14F0A1
:1028280018EF14F01CEF14F00B0E6A6F33EF14F06E
:102838002D0E6C19D8A423EF14F025EF14F029EF0E
:1028480014F00C0E6A6F33EF14F0200E6C19D8A434
:1028580030EF14F032EF14F078EF14F06A6B6B6B12
:102868006A51050D770EF324676F7E0EF420686FAA
:102878006B516727000E682367C0F6FF68C0F7FF33
:102888000800F5CF69F066516B25636F6551CFEC91
:102898001AF06CEC1BF0780E3AEC1BF0400E3AEC98
:1028A8001BF0000169513AEC1BF061EC1BF00001D0
:1028B8006B2B040E6B6563EF14F065EF14F034EFC7
:1028C80014F06651050F636F6551CFEC1AF06CEC8C
:1028D8001BF0780E3AEC1BF0400E3AEC1BF0000EA1
:1028E8003AEC1BF061EC1BF012000001F335F435F3
:1028F800FA6FFA51D8A483EF14F085EF14F08FEF34
:1029080014F0000EF16F000EF26F000EF36F000E60
:10291800F46FFCEF14F0F1C0F5F0F2C0F6F0F3C07C
:10292800F7F0F4C0F8F0200E9FEF14F0D890F833C9
:10293800F733F633F533E82E9AEF14F0F551F96FC3
:10294800F38FFF0EF117FF0EF217FF0EF317000EAD
:10295800F417960EFA5FFABFB6EF14F0B4EF14F05E
:10296800CCEF14F0FA51800A970FD8B0BEEF14F0EC
:10297800C0EF14F0C2EF14F085EF14F0D890F433E0
:10298800F333F233F133FA3FC2EF14F0E4EF14F00B
:102998001F0EFA65D2EF14F0D4EF14F0DCEF14F048
:1029A80085EF14F0D890F137F237F337F437FA0798
:1029B800FA51D8A4E2EF14F0E4EF14F0D6EF14F0D3
:1029C800F951D8B4EAEF14F0ECEF14F0F4EF14F086
:1029D800F41FF31FF21FF16D000EF223F323F4230B
:1029E800F1C0F1F0F2C0F2F0F3C0F3F0F4C0F4F08B
:1029F8001200000E00016015686F000E6115696F06
:102A0800800E62156A6F7F0E63156B6F68516911CE
:102A18006A116B11D8A413EF15F015EF15F01DEF1F
:102A280015F0000E606F000E616F000E626F000EF1
:102A3800636F000E6415686F000E6515696F800E70
:102A480066156A6F7F0E67156B6F685169116A1199
:102A58006B11D8A432EF15F034EF15F03CEF15F0F8
:102A6800000E646F000E656F000E666F000E676FD4
:102A780063AF41EF15F043EF15F04CEF15F0606DC3
:102A8800611FD8B0612B621FD8B0622B800E6357CC
:102A980067AF51EF15F053EF15F05CEF15F0646D6B
:102AA800651FD8B0652B661FD8B0662B800E675798
:102AB800000E601B000E611B000E621B800E631B64
:102AC800000E641B000E651B000E661B800E671B44
:102AD8006451605D65516159665162596751635926
:102AE800D8B079EF15F07BEF15F07EEF15F0D890A0
:102AF8007FEF15F0D88012000001866B7CC081F052
:102B08007DC082F08AEF15F00001862B81517F6F1E
:102B18008251806F814B822B7FC0F6FF80C0F7FF08
:102B2800F86A070EF76403D00800F55005D0F6CF11
:102B3800E1FFF7CFE2FFE7500009D8A4A6EF15F0B0
:102B4800A8EF15F088EF15F00A0E0001856F865181
:102B58000C0DF3CF83F083518008606F000ED8A06E
:102B6800E82A0008616F000E636F020E626F5DEC69
:102B780016F000016051846F876BE7EF15F0020EC5
:102B8800686F7EC069F08551020F8703F350842572
:102B98006A6F87517C257F6F000E7D21806F7FC013
:102BA800F6FF80C0F7FFF86A070EF76403D0080045
:102BB800F55005D0F6CFE1FFF7CFE2FFE75052EC32
:102BC80010F00001872B8651875DD8A0EEEF15F035
:102BD800F0EF15F0C3EF15F01200276A1DC022F0C0
:102BE8001EC023F0F9EF15F0272A2250206E23503B
:102BF800216E224A232A20C0F6FF21C0F7FFF86A77
:102C0800070EF76403D00800F55005D0F6CFE1FFB2
:102C1800F7CFE2FFE7500009D8A415EF16F017EF39
:102C280016F0F8EF15F00A0E266E27500C0DF3CFAC
:102C380024F024508008016E000ED8A0E82A00086D
:102C4800026E000E046E020E036EBFEC16F0015009
:102C5800256E286A53EF16F0020E096E1FC00AF09F
:102C68002650020F2802F35025240B6E28501D24ED
:102C7800206E000E1E20216E20C0F6FF21C0F7FF37
:102C8800F86A070EF76403D00800F55005D0F6CFB0
:102C9800E1FFF7CFE2FFE75051EC11F0282A275067
:102CA800285CD8A05AEF16F05CEF16F030EF16F05B
:102CB80012000001656B63BF66EF16F064EF16F053
:102CC8006CEF16F0626D631FD8B0632B010E656F51
:102CD80061BF73EF16F071EF16F079EF16F0606DC3
:102CE800611FD8B0612B010E651B000E676F000EC7
:102CF800666F62516311D8B484EF16F086EF16F050
:102D0800AEEF16F0010E646F8EEF16F0D8906237B2
:102D18006337642B63AF93EF16F095EF16F08AEFE5
:102D280016F0D890663767376251605D6351615914
:102D3800D8A0A1EF16F0A3EF16F0A8EF16F0625195
:102D4800605F6351615B6681D89063336233642F3F
:102D580095EF16F06551D8B4B4EF16F0B6EF16F04B
:102D6800BAEF16F0666D671FD8B0672B66C060F0C3
:102D780067C061F01200066A04BEC7EF16F0C5EF1F
:102D880016F0CDEF16F0036C041ED8B0042A010E1D
:102D9800066E02BED4EF16F0D2EF16F0DAEF16F098
:102DA800016C021ED8B0022A010E061A000E086E27
:102DB800000E076E03500410D8B4E5EF16F0E7EFE5
:102DC80016F00FEF17F0010E056EEFEF16F0D89022
:102DD80003360436052A04AEF4EF16F0F6EF16F0C3
:102DE800EBEF16F0D890073608360350015C045014
:102DF8000258D8A002EF17F004EF17F009EF17F008
:102E08000350015E0450025A0780D89004320332FE
:102E1800052EF6EF16F00650D8B415EF17F017EF99
:102E280017F01BEF17F0076C081ED8B0082A07C068
:102E380001F008C002F0120000016251D8B427EF77
:102E480017F029EF17F031EF17F06251D8A42FEFE0
:102E580017F031EF17F036EF17F06051ADEC1BF0BB
:102E68007DEF17F06251D96EDA6A090ED926DE5065
:102E7800DE10D8B442EF17F044EF17F05DEF17F00B
:102E88006251D96EDA6A090ED9266251E16EE26A98
:102E9800020EE126DE50E65CE650800A676FDE50DF
:102EA800800A6759D8B05BEF17F05DEF17F07DEF38
:102EB80017F06251D96EDA6A020ED926DECF63F0B6
:102EC800DDCF64F06251D96EDA6ADECF65F0DDCF0E
:102ED80066F063516525D96E64516621DA6E60C06B
:102EE800DFFF6251D96EDA6A020ED926DE2A000E99
:102EF800DD2212000001656B61BF87EF17F085EFD7
:102F080017F08DEF17F0606D611FD8B0612B010EBF
:102F1800656F63BF94EF17F092EF17F098EF17F013
:102F2800626D631FD8B0632B62516311D8B49FEFF1
:102F380017F0A1EF17F0C5EF17F0010E646FA9EFB6
:102F480017F0D89062376337642B63AFAEEF17F092
:102F5800B0EF17F0A5EF17F06251605D635161594A
:102F6800D8A0B9EF17F0BBEF17F0BFEF17F0625119
:102F7800605F6351615BD89063336233642FB0EF55
:102F880017F06551D8B4CBEF17F0CDEF17F0D1EFAC
:102F980017F0606D611FD8B0612B60C060F061C030
:102FA80061F01200030E0001646F080E636F770E64
:102FB800E82EFED7632FFCD7642FFAD7AE0E0AECA3
:102FC8001BF0D50E0AEC1BF0800E0AEC1BF0A80EC5
:102FD8000AEC1BF03F0E0AEC1BF0D30E0AEC1BF0B8
:102FE800000E0AEC1BF0400E0AEC1BF08D0E0AECEA
:102FF8001BF0140E0AEC1BF0200E0AEC1BF0000E5E
:103008000AEC1BF0A10E0AEC1BF0C80E0AEC1BF030
:10301800DA0E0AEC1BF0120E0AEC1BF0810E0AEC19
:103028001BF0CF0E0AEC1BF0D90E0AEC1BF0F10EC8
:103038000AEC1BF0DB0E0AEC1BF0400E0AEC1BF04E
:10304800A40E0AEC1BF0A60E0AEC1BF0AF0E0AEC5D
:103058001BF01200C29AC298C296C2941A0EE82EA9
:10306800FED700D0C282C2B23CEF18F03EEF18F093
:1030780037EF18F0000E0001726F000E736F800EAC
:10308800746F430E756FC450606F616B626B636BD6
:10309800010E49EC12F060C06EF061C06FF062C0C2
:1030A80070F063C071F065EC02F06EC087F06FC01D
:1030B80088F070C089F071C08AF0C3500001606F59
:1030C800616B626B636B010E49EC12F060C08BF0B0
:1030D80061C08CF062C08DF063C08EF009EC00F026
:1030E80087C09BF088C09CF089C09DF08AC09EF084
:1030F8009BC097F09CC098F09DC099F09EC09AF034
:1031080012000001666F66C068F0BAEF18F06851E7
:10311800B00F0AEC1BF0000164510F0B0AEC1BF016
:10312800000164390F0B0F0B100F0AEC1BF06CEC4D
:103138001BF0780E3AEC1BF0400E3AEC1BF064C022
:1031480067F0ACEF18F0000E3AEC1BF00001672BAB
:1031580000016751655DD8B0B4EF18F0B6EF18F00C
:10316800A7EF18F061EC1BF00001682B0001685113
:10317800635DD8B0C2EF18F0C4EF18F08BEF18F009
:103188001200076E07C009F0F4EF18F00950B00FED
:103198002BEC1BF005500F0B2BEC1BF005380F0B1D
:1031A8000F0B100F2BEC1BF08DEC1BF0780E48EC7E
:1031B8001BF0400E48EC1BF005C008F0E8EF18F0D3
:1031C800000E48EC1BF0082A0850065CD8B0EFEF58
:1031D80018F0F1EF18F0E4EF18F082EC1BF0092A70
:1031E8000950045CD8B0FBEF18F0FDEF18F0CAEFF7
:1031F80018F0120005EF19F00001604B612B624BCB
:10320800632B62C0D9FF63C0DAFF60C0E1FF61C011
:10321800E2FFDE50E618D8A414EF19F016EF19F003
:1032280022EF19F060C0D9FF61C0DAFFDF50D8A4DF
:1032380020EF19F022EF19F000EF19F060C0D9FF64
:1032480061C0DAFFDF500001646F62C0D9FF63C05C
:10325800DAFFDF50656F6551645D606F616BD8A000
:10326800610712004DEF19F061C0F6FF62C0F7FF69
:10327800F86A070EF76403D00800F55005D0F6CFBA
:10328800E1FFF7CFE2FFE75055EC1BF00001614B7F
:10329800622B61C0F6FF62C0F7FFF86A070EF76499
:1032A80003D00800F55005D0F6CFE1FFF7CFE2FFD5
:1032B800E7500009D8A463EF19F065EF19F038EF6B
:1032C80019F012007CEF19F002C0F6FF03C0F7FFF7
:1032D800F86A070EF76403D00800F55005D0F6CF5A
:1032E800E1FFF7CFE2FFE75077EC1BF0024A032A31
:1032F80002C0F6FF03C0F7FFF86A070EF76403D0B1
:103308000800F55005D0F6CFE1FFF7CFE2FFE75010
:103318000009D8A492EF19F094EF19F068EF19F0AA
:103328001200000E0001C81B000EC91B000ECA1BAC
:10333800800ECB1BC4C087F0C5C088F0C6C089F01A
:10334800C7C08AF0C8C08BF0C9C08CF0CAC08DF065
:10335800CBC08EF009EC00F087C0C4F088C0C5F07F
:1033680089C0C6F08AC0C7F0120078C07BF079C067
:103378007CF0C8EF19F077C06AF07B0E00016B6F24
:103388007AC06CF020EC0DF07BC0F6FF7CC0F7FF34
:103398000800F5500009D8A4D4EF19F0D6EF19F0B9
:1033A800BFEF19F0000E0001786F000E776F120062
:1033B800810E0001856F7DC086F07EC087F0000E0B
:1033C800896F000E886F000E906F000E8F6F860E4B
:1033D800776F7FC078F080C079F0850E7A6FB9EC8E
:1033E80019F0000188517D25D96E89517E21DA6E48
:1033F800DF6A120011EF1AF06FC065F070C066F056
:103408006DC0F6FF6EC0F7FF0800F550E2EC13F050
:10341800060E000170276D4B6E2B6DC0F6FF6EC057
:10342800F7FF0800F5500009D8A41DEF1AF01FEFA8
:103438001AF000EF1AF012000001605161116211D8
:103448006311D8B42AEF1AF02CEF1AF034EF1AF0FF
:10345800000E601B000E611B000E621B800E631BBA
:1034680060C060F061C061F062C062F063C063F088
:10347800120060C064F061C065F062C0D9FF63C02B
:10348800DAFF0001624B632B64C0E1FF65C0E2FF15
:10349800644B652BDFCFE7FFE750D8A456EF1AF04F
:1034A80058EF1AF041EF1AF01200000167BF5FEF02
:1034B8001AF061EF1AF067EF1AF066C066F067C09D
:1034C80067F073EF1AF066C068F067C069F0681FAC
:1034D800691F684B692B68C066F069C067F0120005
:1034E80049C064F04AC065F04BC066F04CC067F054
:1034F80060C064F061C065F062C066F063C067F0E8
:103508000001679F64C060F065C061F066C062F04A
:1035180067C063F01200C186C194C182C180C08EA9
:10352800C094C082C090C280030E0001616F080E73
:10353800606F770EE82EFED7602FFCD7612FFAD781
:10354800120001EE5EF04A0EEE6AE806FDE10001A7
:10355800FF6B00EE35F0210EEE6AE806FDE15690AD
:103568005692000EF86E000179EF04F0949C948E48
:103578009380938292809282928492869598959A6B
:10358800959C959E939493969398939A95809582FB
:10359800F18AF18812000001646F00016451B00FD4
:1035A8000AEC1BF0000163510F0B0AEC1BF0000141
:1035B80063390F0B0F0B100F0AEC1BF01200C5CF6D
:1035C80060F01F0E00016017D8A4EDEF1AF0EFEFBE
:1035D8001AF0E3EF1AF0C7B4F4EF1AF0F6EF1AF0A6
:1035E800E3EF1AF01200C5CF01F01F0E0116D8A4A0
:1035F80000EF1BF002EF1BF0F7EF1AF0C7B407EF6C
:103608001BF009EF1BF0F7EF1AF012000001626FD0
:103618006CEC1BF0780E3AEC1BF0000E3AEC1BF049
:10362800000162513AEC1BF061EC1BF01200056ED0
:103638000550B00F2BEC1BF004500F0B2BEC1BF0BC
:1036480004380F0B0F0B100F2BEC1BF01200036E3E
:103658008DEC1BF0780E48EC1BF0000E48EC1BF0CC
:10366800035048EC1BF082EC1BF012000001616F64
:10367800E3EC1AF061C0C9FFC7B045EF1BF047EF94
:103688001BF040EF1BF01200026EF7EC1AF002C0BC
:10369800C9FFC7B052EF1BF054EF1BF04DEF1BF002
:1036A80012000001606FACA25CEF1BF05EEF1BF034
:1036B80057EF1BF060C0ADFF1200E3EC1AF0C584B1
:1036C800C5B469EF1BF06BEF1BF064EF1BF0120041
:1036D800E3EC1AF0C580C5B074EF1BF076EF1BF071
:1036E8006FEF1BF01200016EACA27DEF1BF07FEFB5
:1036F8001BF078EF1BF001C0ADFF1200F7EC1AF0D9
:10370800C584C5B48AEF1BF08CEF1BF085EF1BF066
:103718001200F7EC1AF0C580C5B095EF1BF097EFD3
:103728001BF090EF1BF01200670EAF6EAC84AC98E4
:10373800AC8AAB8EAB881200280EC66EC56A090E1D
:10374800C86EC76A1200F28EF086F090F088F09288
:043758001200120049
:107E76000000000000003E5149453E00427F4000A0
:107E8600625149494622414949361814127F102F3A
:107E9600494949313C4A4949300171090503364986
:107EA600494936064949291E0609090600080808EF
:107EB60008087E1111117E7F494949363E414141EC
:107EC600227F4141413E7F494949417F09090901D4
:107ED6003E4149497A7F0808087F00417F410030CA
:107EE6004040403F7F081422417F404040407F028F
:107EF60004027F7F0408107F3E4141413E7F09090D
:107F060009063E4151215E7F0919294646494949DC
:107F16003101017F01013F4040403F1F2040201FAB
:107F26003F4038403F631408146303047804034752
:107F360049516141AEE534BF6BD30DBCBA132FBDB9
:107F460075AA2A3EDB0FC93F0D0A21212120454D86
:107F5600455247454E43592053544F5020414354B0
:107F6600495641544544202121210D0A000D0A217C
:107F760021212053595354454D205245424F4F54C9
:107F8600494E47202121210D0A0057656C636F6D0C
:107F960065204461666E65210D0A00537973746528
:107FA6006D20737461727465640D0A004254204139
:107FB6004354495645005245424F4F54494E470097
:107FC600454D455247454E43590025642C25640DC1
:107FD6000A0057454C434F4D45004441464E450027
:107FE60053544F500025642563004254002D00422F
:0A7FF6000046004C00520058000045
:020000040030CA
:0E000000000C191EFF8080FF0FC00FE00F40A4
:00000001FF
